{
  "contractName": "Auction",
  "abi": [
    {
      "constant": true,
      "inputs": [],
      "name": "rule",
      "outputs": [
        {
          "name": "startingPrice",
          "type": "uint8"
        },
        {
          "name": "minimumStep",
          "type": "uint8"
        }
      ],
      "payable": false,
      "stateMutability": "view",
      "type": "function"
    },
    {
      "constant": true,
      "inputs": [],
      "name": "auctioneer",
      "outputs": [
        {
          "name": "",
          "type": "address"
        }
      ],
      "payable": false,
      "stateMutability": "view",
      "type": "function"
    },
    {
      "constant": true,
      "inputs": [],
      "name": "currentPrice",
      "outputs": [
        {
          "name": "",
          "type": "uint8"
        }
      ],
      "payable": false,
      "stateMutability": "view",
      "type": "function"
    },
    {
      "constant": true,
      "inputs": [],
      "name": "currentWinner",
      "outputs": [
        {
          "name": "",
          "type": "address"
        }
      ],
      "payable": false,
      "stateMutability": "view",
      "type": "function"
    },
    {
      "constant": true,
      "inputs": [],
      "name": "state",
      "outputs": [
        {
          "name": "",
          "type": "uint8"
        }
      ],
      "payable": false,
      "stateMutability": "view",
      "type": "function"
    },
    {
      "constant": true,
      "inputs": [],
      "name": "announcementTimes",
      "outputs": [
        {
          "name": "",
          "type": "uint8"
        }
      ],
      "payable": false,
      "stateMutability": "view",
      "type": "function"
    },
    {
      "constant": true,
      "inputs": [
        {
          "name": "",
          "type": "address"
        }
      ],
      "name": "bidders",
      "outputs": [
        {
          "name": "token",
          "type": "uint8"
        },
        {
          "name": "deposit",
          "type": "uint8"
        }
      ],
      "payable": false,
      "stateMutability": "view",
      "type": "function"
    },
    {
      "inputs": [
        {
          "name": "_startingPrice",
          "type": "uint8"
        },
        {
          "name": "_minimumStep",
          "type": "uint8"
        }
      ],
      "payable": false,
      "stateMutability": "nonpayable",
      "type": "constructor"
    },
    {
      "constant": false,
      "inputs": [
        {
          "name": "_account",
          "type": "address"
        },
        {
          "name": "_token",
          "type": "uint8"
        }
      ],
      "name": "register",
      "outputs": [],
      "payable": false,
      "stateMutability": "nonpayable",
      "type": "function"
    },
    {
      "constant": false,
      "inputs": [],
      "name": "startSession",
      "outputs": [],
      "payable": false,
      "stateMutability": "nonpayable",
      "type": "function"
    },
    {
      "constant": false,
      "inputs": [
        {
          "name": "_price",
          "type": "uint8"
        }
      ],
      "name": "bid",
      "outputs": [],
      "payable": false,
      "stateMutability": "nonpayable",
      "type": "function"
    },
    {
      "constant": false,
      "inputs": [],
      "name": "announce",
      "outputs": [],
      "payable": false,
      "stateMutability": "nonpayable",
      "type": "function"
    },
    {
      "constant": false,
      "inputs": [],
      "name": "getDeposit",
      "outputs": [],
      "payable": false,
      "stateMutability": "nonpayable",
      "type": "function"
    }
  ],
  "bytecode": "0x606060405260008060006101000a81548160ff0219169083600381111561002257fe5b021790555060008060016101000a81548160ff021916908360ff16021790555060008060026101000a81548160ff021916908360ff1602179055506000600360146101000a81548161ffff021916908361ffff160217905550341561008657600080fd5b604051604080610dc18339810160405280805190602001909190805190602001909190505033600360006101000a81548173ffffffffffffffffffffffffffffffffffffffff021916908373ffffffffffffffffffffffffffffffffffffffff16021790555081600160000160006101000a81548160ff021916908360ff16021790555080600160000160016101000a81548160ff021916908360ff16021790555081600060026101000a81548160ff021916908360ff1602179055505050610c6d806101546000396000f300606060405236156100b8576000357c0100000000000000000000000000000000000000000000000000000000900463ffffffff16806307e49598146100bd57806325e3d5221461010257806333500e261461013e5780635ec2c7bf146101645780638f970df0146101b95780639d1b464a146101ce578063aabe2fe3146101fd578063c19d93fb14610252578063c399ec8814610289578063e4f8c1b61461029e578063fcc8f793146102cd578063fe0ae1651461032d575b600080fd5b34156100c857600080fd5b610100600480803573ffffffffffffffffffffffffffffffffffffffff1690602001909190803560ff16906020019091905050610342565b005b341561010d57600080fd5b61011561048e565b604051808360ff1660ff1681526020018260ff1660ff1681526020019250505060405180910390f35b341561014957600080fd5b610162600480803560ff169060200190919050506104ba565b005b341561016f57600080fd5b6101776106a2565b604051808273ffffffffffffffffffffffffffffffffffffffff1673ffffffffffffffffffffffffffffffffffffffff16815260200191505060405180910390f35b34156101c457600080fd5b6101cc6106c8565b005b34156101d957600080fd5b6101e16107cc565b604051808260ff1660ff16815260200191505060405180910390f35b341561020857600080fd5b6102106107df565b604051808273ffffffffffffffffffffffffffffffffffffffff1673ffffffffffffffffffffffffffffffffffffffff16815260200191505060405180910390f35b341561025d57600080fd5b610265610805565b6040518082600381111561027557fe5b60ff16815260200191505060405180910390f35b341561029457600080fd5b61029c610817565b005b34156102a957600080fd5b6102b1610b3a565b604051808260ff1660ff16815260200191505060405180910390f35b34156102d857600080fd5b610304600480803573ffffffffffffffffffffffffffffffffffffffff16906020019091905050610b4d565b604051808360ff1660ff1681526020018260ff1660ff1681526020019250505060405180910390f35b341561033857600080fd5b610340610b8b565b005b3373ffffffffffffffffffffffffffffffffffffffff16600360009054906101000a900473ffffffffffffffffffffffffffffffffffffffff1673ffffffffffffffffffffffffffffffffffffffff1614151561039e57600080fd5b60008060038111156103ac57fe5b6000809054906101000a900460ff1660038111156103c657fe5b1415156103d257600080fd5b81600460008573ffffffffffffffffffffffffffffffffffffffff1673ffffffffffffffffffffffffffffffffffffffff16815260200190815260200160002060000160006101000a81548160ff021916908360ff1602179055506000600460008573ffffffffffffffffffffffffffffffffffffffff1673ffffffffffffffffffffffffffffffffffffffff16815260200190815260200160002060000160016101000a81548160ff021916908360ff160217905550505050565b60018060000160009054906101000a900460ff16908060000160019054906101000a900460ff16905082565b60008060018060038111156104cb57fe5b6000809054906101000a900460ff1660038111156104e557fe5b1415156104f157600080fd5b339250600460008473ffffffffffffffffffffffffffffffffffffffff1673ffffffffffffffffffffffffffffffffffffffff1681526020019081526020016000209150600160000160019054906101000a900460ff16600060029054906101000a900460ff160160ff168460ff161015151561056d57600080fd5b8360ff168260000160009054906101000a900460ff1660ff161015151561059357600080fd5b838260000160018282829054906101000a900460ff160192506101000a81548160ff021916908360ff160217905550838260000160009054906101000a900460ff16038260000160006101000a81548160ff021916908360ff1602179055508360ff16600360148282829054906101000a900461ffff160192506101000a81548161ffff021916908361ffff16021790555083600060026101000a81548160ff021916908360ff16021790555082600260006101000a81548173ffffffffffffffffffffffffffffffffffffffff021916908373ffffffffffffffffffffffffffffffffffffffff16021790555060008060016101000a81548160ff021916908360ff16021790555050505050565b600360009054906101000a900473ffffffffffffffffffffffffffffffffffffffff1681565b3373ffffffffffffffffffffffffffffffffffffffff16600360009054906101000a900473ffffffffffffffffffffffffffffffffffffffff1673ffffffffffffffffffffffffffffffffffffffff1614151561072457600080fd5b600180600381111561073257fe5b6000809054906101000a900460ff16600381111561074c57fe5b14151561075857600080fd5b6000600181819054906101000a900460ff168092919060010191906101000a81548160ff021916908360ff160217905550506003600060019054906101000a900460ff1660ff1611156107c95760026000806101000a81548160ff021916908360038111156107c357fe5b02179055505b50565b600060029054906101000a900460ff1681565b600260009054906101000a900473ffffffffffffffffffffffffffffffffffffffff1681565b6000809054906101000a900460ff1681565b600280600381111561082557fe5b6000809054906101000a900460ff16600381111561083f57fe5b14151561084b57600080fd5b600260009054906101000a900473ffffffffffffffffffffffffffffffffffffffff1673ffffffffffffffffffffffffffffffffffffffff163373ffffffffffffffffffffffffffffffffffffffff16141515156108a857600080fd5b600460003373ffffffffffffffffffffffffffffffffffffffff1673ffffffffffffffffffffffffffffffffffffffff16815260200190815260200160002060000160019054906101000a900460ff16600460003373ffffffffffffffffffffffffffffffffffffffff1673ffffffffffffffffffffffffffffffffffffffff16815260200190815260200160002060000160008282829054906101000a900460ff160192506101000a81548160ff021916908360ff160217905550600460003373ffffffffffffffffffffffffffffffffffffffff1673ffffffffffffffffffffffffffffffffffffffff16815260200190815260200160002060000160019054906101000a900460ff1660ff16600360149054906101000a900461ffff1603600360146101000a81548161ffff021916908361ffff1602179055506000600460003373ffffffffffffffffffffffffffffffffffffffff1673ffffffffffffffffffffffffffffffffffffffff16815260200190815260200160002060000160016101000a81548160ff021916908360ff160217905550600360149054906101000a900461ffff1661ffff1660046000600260009054906101000a900473ffffffffffffffffffffffffffffffffffffffff1673ffffffffffffffffffffffffffffffffffffffff1673ffffffffffffffffffffffffffffffffffffffff16815260200190815260200160002060000160019054906101000a900460ff1660ff161415610af55760036000806101000a81548160ff02191690836003811115610aef57fe5b02179055505b6000600360149054906101000a900461ffff1661ffff16111515610b375760036000806101000a81548160ff02191690836003811115610b3157fe5b02179055505b50565b600060019054906101000a900460ff1681565b60046020528060005260406000206000915090508060000160009054906101000a900460ff16908060000160019054906101000a900460ff16905082565b3373ffffffffffffffffffffffffffffffffffffffff16600360009054906101000a900473ffffffffffffffffffffffffffffffffffffffff1673ffffffffffffffffffffffffffffffffffffffff16141515610be757600080fd5b6000806003811115610bf557fe5b6000809054906101000a900460ff166003811115610c0f57fe5b141515610c1b57600080fd5b60016000806101000a81548160ff02191690836003811115610c3957fe5b0217905550505600a165627a7a7230582054f65d928d1d7ef7493c17a31cf877a38cd2b29ae0ae2b88be88a939145235910029",
  "source": "\r\npragma solidity ^0.4.17;\r\n\r\ncontract Auction {\r\n    \r\n    // Data\r\n    \r\n    // Structure to hold details of Bidder\r\n    struct IBidder {\r\n        uint8 token;\r\n        uint8 deposit;\r\n    }\r\n    \r\n    // Structure to hold details of Rule\r\n    struct IRule {\r\n        uint8 startingPrice;\r\n        uint8 minimumStep;\r\n    }\r\n    \r\n    \r\n    // State Enum to define Auction's state\r\n    enum State { CREATED, STARTED, CLOSING, CLOSED }\r\n    \r\n    State public state = State.CREATED; // State of Auction\r\n    \r\n    uint8 public announcementTimes = 0; // Number of announcements\r\n    uint8 public currentPrice = 0; // Latest price is bid.\r\n    IRule public rule; // Rule of this session\r\n    address public currentWinner; // Current Winner, who bid the highest price.\r\n    address public auctioneer;\r\n    \r\n    uint16 private totalDeposit = 0;\r\n    \r\n    mapping(address => IBidder) public bidders; // Mapping to hold bidders' information\r\n    \r\n    function Auction(uint8 _startingPrice, uint8 _minimumStep) public {\r\n        \r\n        // Task #1 - Initialize the Smart contract\r\n        // + Initialize Auctioneer with address of smart contract's owner\r\n        // + Set the starting price & minimumStep\r\n        // + Set the current price as the Starting price\r\n        \r\n        \r\n        // ** Start code here. 4 lines approximately. ** /\r\n        auctioneer = msg.sender;\r\n        rule.startingPrice = _startingPrice;\r\n        rule.minimumStep = _minimumStep;\r\n        currentPrice = _startingPrice;\r\n\r\n        // ** End code here. ** /\r\n    }\r\n    \r\n    \r\n    // Register new Bidder\r\n    function register(address _account, uint8 _token) public onlyAuctioneer validStage(State.CREATED){ \r\n        \r\n                \r\n        // Task #2 - Register the bidder\r\n        // + Initialize a Bidder with address and token are given.\r\n        // + Initialize a Bidder's deposit with 0\r\n        \r\n        \r\n        // ** Start code here. 3 lines approximately. ** /\r\n        //    require(auctioneer == msg.sender , 'Only auctioneer can register for bidders');\r\n            bidders[_account].token = _token;\r\n            bidders[_account].deposit = 0;\r\n\t   // ** End code here. **/\r\n    }\r\n\r\n    \r\n    // Start the session.\r\n    function startSession() public onlyAuctioneer validStage(State.CREATED){\r\n        state = State.STARTED;\r\n    }\r\n    \r\n\r\n    \r\n    function bid(uint8 _price) public validStage(State.STARTED){\r\n        \r\n        // Task #3 - Bid by Bidders\r\n        // + Check the price with currentPirce and minimumStep. Revert if invalid.\r\n        // + Check if the Bidder has enough token to bid. Revert if invalid.\r\n        // + Move token to Deposit.\r\n        \r\n        address bidderAddr = msg.sender;\r\n        IBidder storage currentBidder = bidders[bidderAddr];\r\n        \r\n        // ** Start code here.  ** /\r\n        require(_price >= (currentPrice + rule.minimumStep));\r\n        require(currentBidder.token >= _price);\r\n        currentBidder.deposit +=_price ;\r\n        currentBidder.token = currentBidder.token - _price;\r\n        \r\n        // ** End code here. **/\r\n        \r\n        // Tracking deposit\r\n        totalDeposit += _price;\r\n        \r\n        // Update the price and the winner after this bid.\r\n        currentPrice = _price;\r\n        currentWinner = bidderAddr;\r\n        \r\n        // Reset the Annoucements Counter\r\n        announcementTimes = 0;\r\n    }\r\n    \r\n    function announce() public onlyAuctioneer validStage(State.STARTED){\r\n        \r\n        // Task #4 - Handle announcement.\r\n        // + When Auctioneer annouce, increase the counter.\r\n        // + When Auctioneer annouced more than 3 times, switch session to Closing state.\r\n        \r\n        // ** Start code here.  ** /\r\n       //require(auctioneer == msg.sender ,'Only auctioneer can annouce');\r\n       announcementTimes++;\r\n       if(announcementTimes > 3){\r\n           state = State.CLOSING;\r\n       }\r\n       \r\n\t   \r\n        // ** End code here. **/\r\n    }\r\n    \r\n    function getDeposit() public validStage(State.CLOSING) exceptWinner{\r\n        \r\n        // Task #5 - Handle get Deposit.\r\n        // + Allow bidders (except Winner) to withdraw their deposit \r\n\t\t// + When all bidders' deposit are withdrew, close the session \r\n        \r\n        // ** Start code here.  ** /\r\n        // HINT: Remember to decrease totalDeposit.\r\n       bidders[msg.sender].token += bidders[msg.sender].deposit;\r\n       totalDeposit = totalDeposit - bidders[msg.sender].deposit;\r\n       bidders[msg.sender].deposit = 0;\r\n       if(bidders[currentWinner].deposit == totalDeposit){\r\n           state = State.CLOSED;\r\n       }\r\n\t   \r\n       // ** End code here ** /\r\n       \r\n       if (totalDeposit <= 0) {\r\n           state = State.CLOSED;\r\n       }\r\n    }\r\n\r\n\r\n\r\n\r\n\r\n// PART 2 - Using Modifier to:\r\n// - Check if the action (startSession, register, bid, annoucement, getDeposit) can be done in current State.\r\n// - Check if the current user can do the action.\r\n    modifier onlyAuctioneer(){\r\n        require(auctioneer == msg.sender);\r\n        _;\r\n    }\r\n    modifier validStage(State stateReq){\r\n        require(state == stateReq);\r\n        _;\r\n    }\r\n    modifier exceptWinner(){\r\n        require(msg.sender != currentWinner);\r\n        _;\r\n    }\r\n}\r\n",
  "sourcePath": "C:/temp/AuctionEnglish/contracts/Auction.sol",
  "compiler": {
    "name": "solc",
    "version": "0.4.17+commit.bdeb9e52.Emscripten.clang"
  },
  "schemaVersion": "3.0.11",
  "updatedAt": "2019-07-31T04:09:05.486Z",
  "devdoc": {
    "methods": {}
  },
  "userdoc": {
    "methods": {}
  }
}